{
  "contractName": "master_swap",
  "abi": [
    {
      "inputs": [
        {
          "internalType": "contract Token",
          "name": "_token",
          "type": "address"
        }
      ],
      "payable": false,
      "stateMutability": "nonpayable",
      "type": "constructor"
    },
    {
      "anonymous": false,
      "inputs": [
        {
          "indexed": false,
          "internalType": "address",
          "name": "account",
          "type": "address"
        },
        {
          "indexed": false,
          "internalType": "address",
          "name": "token",
          "type": "address"
        },
        {
          "indexed": false,
          "internalType": "uint256",
          "name": "amount",
          "type": "uint256"
        },
        {
          "indexed": false,
          "internalType": "uint256",
          "name": "rate",
          "type": "uint256"
        }
      ],
      "name": "TokenPurchased",
      "type": "event"
    },
    {
      "anonymous": false,
      "inputs": [
        {
          "indexed": false,
          "internalType": "address",
          "name": "account",
          "type": "address"
        },
        {
          "indexed": false,
          "internalType": "address",
          "name": "token",
          "type": "address"
        },
        {
          "indexed": false,
          "internalType": "uint256",
          "name": "amount",
          "type": "uint256"
        },
        {
          "indexed": false,
          "internalType": "uint256",
          "name": "rate",
          "type": "uint256"
        }
      ],
      "name": "TokenSold",
      "type": "event"
    },
    {
      "constant": true,
      "inputs": [],
      "name": "name",
      "outputs": [
        {
          "internalType": "string",
          "name": "",
          "type": "string"
        }
      ],
      "payable": false,
      "stateMutability": "view",
      "type": "function"
    },
    {
      "constant": true,
      "inputs": [],
      "name": "rate",
      "outputs": [
        {
          "internalType": "uint256",
          "name": "",
          "type": "uint256"
        }
      ],
      "payable": false,
      "stateMutability": "view",
      "type": "function"
    },
    {
      "constant": true,
      "inputs": [],
      "name": "token",
      "outputs": [
        {
          "internalType": "contract Token",
          "name": "",
          "type": "address"
        }
      ],
      "payable": false,
      "stateMutability": "view",
      "type": "function"
    },
    {
      "constant": false,
      "inputs": [],
      "name": "buyTokens",
      "outputs": [],
      "payable": true,
      "stateMutability": "payable",
      "type": "function"
    },
    {
      "constant": false,
      "inputs": [
        {
          "internalType": "uint256",
          "name": "_amount",
          "type": "uint256"
        }
      ],
      "name": "sellTokens",
      "outputs": [],
      "payable": false,
      "stateMutability": "nonpayable",
      "type": "function"
    }
  ],
  "bytecode": "0x60806040526040518060400160405280601c81526020017f6d61737465725f7377617020496e7374616e742045786368616e6765000000008152506000908051906020019061004f9291906100dc565b50606460025534801561006157600080fd5b50604051610a20380380610a208339818101604052602081101561008457600080fd5b810190808051906020019092919050505080600160006101000a81548173ffffffffffffffffffffffffffffffffffffffff021916908373ffffffffffffffffffffffffffffffffffffffff16021790555050610181565b828054600181600116156101000203166002900490600052602060002090601f016020900481019282601f1061011d57805160ff191683800117855561014b565b8280016001018555821561014b579182015b8281111561014a57825182559160200191906001019061012f565b5b509050610158919061015c565b5090565b61017e91905b8082111561017a576000816000905550600101610162565b5090565b90565b610890806101906000396000f3fe60806040526004361061004a5760003560e01c806306fdde031461004f5780632c4e722e146100df5780636c11bcd31461010a578063d0febe4c14610145578063fc0c546a1461014f575b600080fd5b34801561005b57600080fd5b506100646101a6565b6040518080602001828103825283818151815260200191508051906020019080838360005b838110156100a4578082015181840152602081019050610089565b50505050905090810190601f1680156100d15780820380516001836020036101000a031916815260200191505b509250505060405180910390f35b3480156100eb57600080fd5b506100f4610244565b6040518082815260200191505060405180910390f35b34801561011657600080fd5b506101436004803603602081101561012d57600080fd5b810190808035906020019092919050505061024a565b005b61014d610593565b005b34801561015b57600080fd5b50610164610835565b604051808273ffffffffffffffffffffffffffffffffffffffff1673ffffffffffffffffffffffffffffffffffffffff16815260200191505060405180910390f35b60008054600181600116156101000203166002900480601f01602080910402602001604051908101604052809291908181526020018280546001816001161561010002031660029004801561023c5780601f106102115761010080835404028352916020019161023c565b820191906000526020600020905b81548152906001019060200180831161021f57829003601f168201915b505050505081565b60025481565b80600160009054906101000a900473ffffffffffffffffffffffffffffffffffffffff1673ffffffffffffffffffffffffffffffffffffffff166370a08231336040518263ffffffff1660e01b8152600401808273ffffffffffffffffffffffffffffffffffffffff1673ffffffffffffffffffffffffffffffffffffffff16815260200191505060206040518083038186803b1580156102ea57600080fd5b505afa1580156102fe573d6000803e3d6000fd5b505050506040513d602081101561031457600080fd5b8101908080519060200190929190505050101561033057600080fd5b6000600254828161033d57fe5b049050803073ffffffffffffffffffffffffffffffffffffffff1631101561036457600080fd5b600160009054906101000a900473ffffffffffffffffffffffffffffffffffffffff1673ffffffffffffffffffffffffffffffffffffffff166323b872dd3330856040518463ffffffff1660e01b8152600401808473ffffffffffffffffffffffffffffffffffffffff1673ffffffffffffffffffffffffffffffffffffffff1681526020018373ffffffffffffffffffffffffffffffffffffffff1673ffffffffffffffffffffffffffffffffffffffff1681526020018281526020019350505050602060405180830381600087803b15801561044157600080fd5b505af1158015610455573d6000803e3d6000fd5b505050506040513d602081101561046b57600080fd5b8101908080519060200190929190505050503373ffffffffffffffffffffffffffffffffffffffff166108fc829081150290604051600060405180830381858888f193505050501580156104c3573d6000803e3d6000fd5b507fa8a7473f10e62cf9687e243de1c3ac8b3cbc3dd04b96826beb3a65b59538581433600160009054906101000a900473ffffffffffffffffffffffffffffffffffffffff1684600254604051808573ffffffffffffffffffffffffffffffffffffffff1673ffffffffffffffffffffffffffffffffffffffff1681526020018473ffffffffffffffffffffffffffffffffffffffff1673ffffffffffffffffffffffffffffffffffffffff16815260200183815260200182815260200194505050505060405180910390a15050565b60006002543402905080600160009054906101000a900473ffffffffffffffffffffffffffffffffffffffff1673ffffffffffffffffffffffffffffffffffffffff166370a08231306040518263ffffffff1660e01b8152600401808273ffffffffffffffffffffffffffffffffffffffff1673ffffffffffffffffffffffffffffffffffffffff16815260200191505060206040518083038186803b15801561063c57600080fd5b505afa158015610650573d6000803e3d6000fd5b505050506040513d602081101561066657600080fd5b8101908080519060200190929190505050101561068257600080fd5b600160009054906101000a900473ffffffffffffffffffffffffffffffffffffffff1673ffffffffffffffffffffffffffffffffffffffff1663a9059cbb33836040518363ffffffff1660e01b8152600401808373ffffffffffffffffffffffffffffffffffffffff1673ffffffffffffffffffffffffffffffffffffffff16815260200182815260200192505050602060405180830381600087803b15801561072b57600080fd5b505af115801561073f573d6000803e3d6000fd5b505050506040513d602081101561075557600080fd5b8101908080519060200190929190505050507f8daf503382665d950e449b86172be5222275c90f4ddf69c29fdaa8237a562a6d33600160009054906101000a900473ffffffffffffffffffffffffffffffffffffffff1683600254604051808573ffffffffffffffffffffffffffffffffffffffff1673ffffffffffffffffffffffffffffffffffffffff1681526020018473ffffffffffffffffffffffffffffffffffffffff1673ffffffffffffffffffffffffffffffffffffffff16815260200183815260200182815260200194505050505060405180910390a150565b600160009054906101000a900473ffffffffffffffffffffffffffffffffffffffff168156fea265627a7a72315820b2e0c95d82517dd2541dc083941257c95d98191d3e5f8045c49c7243b726f2c864736f6c63430005100032",
  "source": "pragma solidity ^0.5.0;\n\nimport \"./Token.sol\";\n\ncontract master_swap {\n string public name = \"master_swap Instant Exchange\";\n Token public token;\n uint public rate = 100;\n\n event TokenPurchased(\n \taddress account,\n \taddress token,\n \tuint amount,\n \tuint rate\n );\n \n  event TokenSold(\n \taddress account,\n \taddress token,\n \tuint amount,\n \tuint rate\n );\n\tconstructor(Token _token) public{\n\t\ttoken = _token;\n\t}\n \n function buyTokens() public payable {\n \t// Calculate the number of tokens to buy\n \tuint tokenAmount = msg.value * rate;\n \t\n \t//Require that masterswap has enough tokens\n \trequire(token.balanceOf(address(this)) >= tokenAmount);\n\n \t//Transfer tokens to the user\n \ttoken.transfer(msg.sender, tokenAmount); \n \n \t//Emit an event\n \temit TokenPurchased(msg.sender, address(token), tokenAmount, rate);\n }\n\n function sellTokens(uint _amount) public {\n \t//User can´t sell more tokens than they have\n \trequire(token.balanceOf(msg.sender) >= _amount);\n \t\n\n \t//Calculate the amount of Ether to redeem\n \tuint etherAmount = _amount / rate;\n\n \t//Require that masterswap has enough Ether\n \trequire(address(this).balance >= etherAmount);\n \t\n \t//Perform the sale\n \ttoken.transferFrom(msg.sender, address(this), _amount);\n \tmsg.sender.transfer(etherAmount);\n\n \t//Emit an event\n \temit TokenSold(msg.sender, address(token), _amount, rate);\n }\n\n}\n\n\n\n\n\n\n\n\n\n\n\n\n ",
  "sourcePath": "/Users/eirikremen/Desktop/Blockcharity/src/contracts/master_swap.sol",
  "compiler": {
    "name": "solc",
    "version": "0.5.16+commit.9c3226ce.Emscripten.clang"
  },
  "schemaVersion": "3.4.0",
  "updatedAt": "2021-04-30T13:26:42.824Z",
  "networkType": "ethereum",
  "devdoc": {
    "methods": {}
  },
  "userdoc": {
    "methods": {}
  }
}